{
  "abi": [
    {
      "inputs": [],
      "stateMutability": "nonpayable",
      "type": "constructor"
    },
    {
      "inputs": [],
      "name": "MintPriceNotPaid",
      "type": "error"
    },
    {
      "inputs": [],
      "name": "NonExistentTokenURI",
      "type": "error"
    },
    {
      "inputs": [],
      "name": "WithdrawTransfer",
      "type": "error"
    },
    {
      "anonymous": false,
      "inputs": [
        {
          "indexed": true,
          "internalType": "address",
          "name": "owner",
          "type": "address"
        },
        {
          "indexed": true,
          "internalType": "address",
          "name": "spender",
          "type": "address"
        },
        {
          "indexed": true,
          "internalType": "uint256",
          "name": "id",
          "type": "uint256"
        }
      ],
      "name": "Approval",
      "type": "event"
    },
    {
      "anonymous": false,
      "inputs": [
        {
          "indexed": true,
          "internalType": "address",
          "name": "owner",
          "type": "address"
        },
        {
          "indexed": true,
          "internalType": "address",
          "name": "operator",
          "type": "address"
        },
        {
          "indexed": false,
          "internalType": "bool",
          "name": "approved",
          "type": "bool"
        }
      ],
      "name": "ApprovalForAll",
      "type": "event"
    },
    {
      "anonymous": false,
      "inputs": [
        {
          "indexed": true,
          "internalType": "address",
          "name": "previousOwner",
          "type": "address"
        },
        {
          "indexed": true,
          "internalType": "address",
          "name": "newOwner",
          "type": "address"
        }
      ],
      "name": "OwnershipTransferred",
      "type": "event"
    },
    {
      "anonymous": false,
      "inputs": [
        {
          "indexed": true,
          "internalType": "address",
          "name": "from",
          "type": "address"
        },
        {
          "indexed": true,
          "internalType": "address",
          "name": "to",
          "type": "address"
        },
        {
          "indexed": true,
          "internalType": "uint256",
          "name": "id",
          "type": "uint256"
        }
      ],
      "name": "Transfer",
      "type": "event"
    },
    {
      "inputs": [],
      "name": "MINT_PRICE",
      "outputs": [
        {
          "internalType": "uint256",
          "name": "",
          "type": "uint256"
        }
      ],
      "stateMutability": "view",
      "type": "function"
    },
    {
      "inputs": [
        {
          "internalType": "address",
          "name": "spender",
          "type": "address"
        },
        {
          "internalType": "uint256",
          "name": "id",
          "type": "uint256"
        }
      ],
      "name": "approve",
      "outputs": [],
      "stateMutability": "nonpayable",
      "type": "function"
    },
    {
      "inputs": [
        {
          "internalType": "address",
          "name": "owner",
          "type": "address"
        }
      ],
      "name": "balanceOf",
      "outputs": [
        {
          "internalType": "uint256",
          "name": "",
          "type": "uint256"
        }
      ],
      "stateMutability": "view",
      "type": "function"
    },
    {
      "inputs": [],
      "name": "currentTokenId",
      "outputs": [
        {
          "internalType": "uint256",
          "name": "",
          "type": "uint256"
        }
      ],
      "stateMutability": "view",
      "type": "function"
    },
    {
      "inputs": [
        {
          "internalType": "uint256",
          "name": "",
          "type": "uint256"
        }
      ],
      "name": "getApproved",
      "outputs": [
        {
          "internalType": "address",
          "name": "",
          "type": "address"
        }
      ],
      "stateMutability": "view",
      "type": "function"
    },
    {
      "inputs": [
        {
          "internalType": "address",
          "name": "",
          "type": "address"
        },
        {
          "internalType": "address",
          "name": "",
          "type": "address"
        }
      ],
      "name": "isApprovedForAll",
      "outputs": [
        {
          "internalType": "bool",
          "name": "",
          "type": "bool"
        }
      ],
      "stateMutability": "view",
      "type": "function"
    },
    {
      "inputs": [
        {
          "internalType": "address",
          "name": "recipient",
          "type": "address"
        },
        {
          "internalType": "string",
          "name": "uri",
          "type": "string"
        }
      ],
      "name": "mintTo",
      "outputs": [
        {
          "internalType": "uint256",
          "name": "",
          "type": "uint256"
        }
      ],
      "stateMutability": "payable",
      "type": "function"
    },
    {
      "inputs": [],
      "name": "name",
      "outputs": [
        {
          "internalType": "string",
          "name": "",
          "type": "string"
        }
      ],
      "stateMutability": "view",
      "type": "function"
    },
    {
      "inputs": [],
      "name": "owner",
      "outputs": [
        {
          "internalType": "address",
          "name": "",
          "type": "address"
        }
      ],
      "stateMutability": "view",
      "type": "function"
    },
    {
      "inputs": [
        {
          "internalType": "uint256",
          "name": "id",
          "type": "uint256"
        }
      ],
      "name": "ownerOf",
      "outputs": [
        {
          "internalType": "address",
          "name": "owner",
          "type": "address"
        }
      ],
      "stateMutability": "view",
      "type": "function"
    },
    {
      "inputs": [],
      "name": "renounceOwnership",
      "outputs": [],
      "stateMutability": "nonpayable",
      "type": "function"
    },
    {
      "inputs": [
        {
          "internalType": "address",
          "name": "from",
          "type": "address"
        },
        {
          "internalType": "address",
          "name": "to",
          "type": "address"
        },
        {
          "internalType": "uint256",
          "name": "id",
          "type": "uint256"
        }
      ],
      "name": "safeTransferFrom",
      "outputs": [],
      "stateMutability": "nonpayable",
      "type": "function"
    },
    {
      "inputs": [
        {
          "internalType": "address",
          "name": "from",
          "type": "address"
        },
        {
          "internalType": "address",
          "name": "to",
          "type": "address"
        },
        {
          "internalType": "uint256",
          "name": "id",
          "type": "uint256"
        },
        {
          "internalType": "bytes",
          "name": "data",
          "type": "bytes"
        }
      ],
      "name": "safeTransferFrom",
      "outputs": [],
      "stateMutability": "nonpayable",
      "type": "function"
    },
    {
      "inputs": [
        {
          "internalType": "address",
          "name": "operator",
          "type": "address"
        },
        {
          "internalType": "bool",
          "name": "approved",
          "type": "bool"
        }
      ],
      "name": "setApprovalForAll",
      "outputs": [],
      "stateMutability": "nonpayable",
      "type": "function"
    },
    {
      "inputs": [
        {
          "internalType": "bytes4",
          "name": "interfaceId",
          "type": "bytes4"
        }
      ],
      "name": "supportsInterface",
      "outputs": [
        {
          "internalType": "bool",
          "name": "",
          "type": "bool"
        }
      ],
      "stateMutability": "view",
      "type": "function"
    },
    {
      "inputs": [],
      "name": "symbol",
      "outputs": [
        {
          "internalType": "string",
          "name": "",
          "type": "string"
        }
      ],
      "stateMutability": "view",
      "type": "function"
    },
    {
      "inputs": [
        {
          "internalType": "uint256",
          "name": "tokenId",
          "type": "uint256"
        }
      ],
      "name": "tokenURI",
      "outputs": [
        {
          "internalType": "string",
          "name": "",
          "type": "string"
        }
      ],
      "stateMutability": "view",
      "type": "function"
    },
    {
      "inputs": [
        {
          "internalType": "address",
          "name": "from",
          "type": "address"
        },
        {
          "internalType": "address",
          "name": "to",
          "type": "address"
        },
        {
          "internalType": "uint256",
          "name": "id",
          "type": "uint256"
        }
      ],
      "name": "transferFrom",
      "outputs": [],
      "stateMutability": "nonpayable",
      "type": "function"
    },
    {
      "inputs": [
        {
          "internalType": "address",
          "name": "newOwner",
          "type": "address"
        }
      ],
      "name": "transferOwnership",
      "outputs": [],
      "stateMutability": "nonpayable",
      "type": "function"
    },
    {
      "inputs": [
        {
          "internalType": "address payable",
          "name": "payee",
          "type": "address"
        }
      ],
      "name": "withdrawPayments",
      "outputs": [],
      "stateMutability": "nonpayable",
      "type": "function"
    }
  ],
  "bytecode": {
    "object": "0x60806040523480156200001157600080fd5b506040518060400160405280600981526020016854696d6573746f6e6560b81b815250604051806040016040528060058152602001642a26a9aa2760d91b815250816000908162000063919062000190565b50600162000072828262000190565b5050506200008f620000896200009560201b60201c565b62000099565b6200025c565b3390565b600680546001600160a01b038381166001600160a01b0319831681179093556040519116919082907f8be0079c531659141344cd1fd0a4f28419497f9722a3daafe3b4186f6b6457e090600090a35050565b634e487b7160e01b600052604160045260246000fd5b600181811c908216806200011657607f821691505b6020821081036200013757634e487b7160e01b600052602260045260246000fd5b50919050565b601f8211156200018b57600081815260208120601f850160051c81016020861015620001665750805b601f850160051c820191505b81811015620001875782815560010162000172565b5050505b505050565b81516001600160401b03811115620001ac57620001ac620000eb565b620001c481620001bd845462000101565b846200013d565b602080601f831160018114620001fc5760008415620001e35750858301515b600019600386901b1c1916600185901b17855562000187565b600085815260208120601f198616915b828110156200022d578886015182559484019460019091019084016200020c565b50858210156200024c5787850151600019600388901b60f8161c191681555b5050505050600190811b01905550565b6114f8806200026c6000396000f3fe60806040526004361061011d5760003560e01c806370a08231116100a0578063b88d4fde11610064578063b88d4fde14610328578063c002d23d14610348578063c87b56dd14610362578063e985e9c514610382578063f2fde38b146103bd57600080fd5b806370a08231146102a0578063715018a6146102c05780638da5cb5b146102d557806395d89b41146102f3578063a22cb4651461030857600080fd5b8063095ea7b3116100e7578063095ea7b3146101fe57806323b872dd1461022057806331b3eb941461024057806342842e0e146102605780636352211e1461028057600080fd5b806275a317146101225780629a9b7b1461014857806301ffc9a71461015e57806306fdde031461018e578063081812fc146101b0575b600080fd5b610135610130366004610f75565b6103dd565b6040519081526020015b60405180910390f35b34801561015457600080fd5b5061013560075481565b34801561016a57600080fd5b5061017e61017936600461104f565b610448565b604051901515815260200161013f565b34801561019a57600080fd5b506101a361049a565b60405161013f9190611090565b3480156101bc57600080fd5b506101e66101cb3660046110c3565b6004602052600090815260409020546001600160a01b031681565b6040516001600160a01b03909116815260200161013f565b34801561020a57600080fd5b5061021e6102193660046110dc565b610528565b005b34801561022c57600080fd5b5061021e61023b366004611108565b61060f565b34801561024c57600080fd5b5061021e61025b366004611149565b6107d6565b34801561026c57600080fd5b5061021e61027b366004611108565b610857565b34801561028c57600080fd5b506101e661029b3660046110c3565b610927565b3480156102ac57600080fd5b506101356102bb366004611149565b61097e565b3480156102cc57600080fd5b5061021e6109e1565b3480156102e157600080fd5b506006546001600160a01b03166101e6565b3480156102ff57600080fd5b506101a36109f5565b34801561031457600080fd5b5061021e610323366004611166565b610a02565b34801561033457600080fd5b5061021e6103433660046111a4565b610a6e565b34801561035457600080fd5b50610135655af3107a400081565b34801561036e57600080fd5b506101a361037d3660046110c3565b610b33565b34801561038e57600080fd5b5061017e61039d366004611243565b600560209081526000928352604080842090915290825290205460ff1681565b3480156103c957600080fd5b5061021e6103d8366004611149565b610c4a565b6000655af3107a40003414610405576040516310f0c8f160e11b815260040160405180910390fd5b600060076000815461041690611271565b918290555060008181526008602052604090209091506104368482611320565b506104418482610cc3565b9392505050565b60006301ffc9a760e01b6001600160e01b03198316148061047957506380ac58cd60e01b6001600160e01b03198316145b806104945750635b5e139f60e01b6001600160e01b03198316145b92915050565b600080546104a790611298565b80601f01602080910402602001604051908101604052809291908181526020018280546104d390611298565b80156105205780601f106104f557610100808354040283529160200191610520565b820191906000526020600020905b81548152906001019060200180831161050357829003601f168201915b505050505081565b6000818152600260205260409020546001600160a01b03163381148061057157506001600160a01b038116600090815260056020908152604080832033845290915290205460ff165b6105b35760405162461bcd60e51b815260206004820152600e60248201526d1393d517d055551213d49256915160921b60448201526064015b60405180910390fd5b60008281526004602052604080822080546001600160a01b0319166001600160a01b0387811691821790925591518593918516917f8c5be1e5ebec7d5bd14f71427d1e84f3dd0314c0f7b2291e5b200ac8c7c3b92591a4505050565b6000818152600260205260409020546001600160a01b038481169116146106655760405162461bcd60e51b815260206004820152600a60248201526957524f4e475f46524f4d60b01b60448201526064016105aa565b6001600160a01b0382166106af5760405162461bcd60e51b81526020600482015260116024820152701253959053125117d49150d25412515395607a1b60448201526064016105aa565b336001600160a01b03841614806106e957506001600160a01b038316600090815260056020908152604080832033845290915290205460ff165b8061070a57506000818152600460205260409020546001600160a01b031633145b6107475760405162461bcd60e51b815260206004820152600e60248201526d1393d517d055551213d49256915160921b60448201526064016105aa565b6001600160a01b0380841660008181526003602090815260408083208054600019019055938616808352848320805460010190558583526002825284832080546001600160a01b03199081168317909155600490925284832080549092169091559251849392917fddf252ad1be2c89b69c2b068fc378daa952ba7f163c4a11628f55a4df523b3ef91a4505050565b6107de610d93565b60405147906000906001600160a01b0384169083908381818185875af1925050503d806000811461082b576040519150601f19603f3d011682016040523d82523d6000602084013e610830565b606091505b50509050806108525760405163d23a9e8960e01b815260040160405180910390fd5b505050565b61086283838361060f565b6001600160a01b0382163b158061090b5750604051630a85bd0160e11b8082523360048301526001600160a01b03858116602484015260448301849052608060648401526000608484015290919084169063150b7a029060a4016020604051808303816000875af11580156108db573d6000803e3d6000fd5b505050506040513d601f19601f820116820180604052508101906108ff91906113e0565b6001600160e01b031916145b6108525760405162461bcd60e51b81526004016105aa906113fd565b6000818152600260205260409020546001600160a01b0316806109795760405162461bcd60e51b815260206004820152600a6024820152691393d517d3525395115160b21b60448201526064016105aa565b919050565b60006001600160a01b0382166109c55760405162461bcd60e51b815260206004820152600c60248201526b5a45524f5f4144445245535360a01b60448201526064016105aa565b506001600160a01b031660009081526003602052604090205490565b6109e9610d93565b6109f36000610ded565b565b600180546104a790611298565b3360008181526005602090815260408083206001600160a01b03871680855290835292819020805460ff191686151590811790915590519081529192917f17307eab39ab6107e8899845ad3d59bd9653f200f220920489ca2b5937696c31910160405180910390a35050565b610a7985858561060f565b6001600160a01b0384163b1580610b105750604051630a85bd0160e11b808252906001600160a01b0386169063150b7a0290610ac19033908a90899089908990600401611427565b6020604051808303816000875af1158015610ae0573d6000803e3d6000fd5b505050506040513d601f19601f82011682018060405250810190610b0491906113e0565b6001600160e01b031916145b610b2c5760405162461bcd60e51b81526004016105aa906113fd565b5050505050565b60606000610b4083610927565b6001600160a01b031603610b675760405163d872946b60e01b815260040160405180910390fd5b60008281526008602052604081208054610b8090611298565b80601f0160208091040260200160405190810160405280929190818152602001828054610bac90611298565b8015610bf95780601f10610bce57610100808354040283529160200191610bf9565b820191906000526020600020905b815481529060010190602001808311610bdc57829003601f168201915b505050505090508051600003610c225760405163d872946b60e01b815260040160405180910390fd5b80604051602001610c33919061147b565b604051602081830303815290604052915050919050565b610c52610d93565b6001600160a01b038116610cb75760405162461bcd60e51b815260206004820152602660248201527f4f776e61626c653a206e6577206f776e657220697320746865207a65726f206160448201526564647265737360d01b60648201526084016105aa565b610cc081610ded565b50565b610ccd8282610e3f565b6001600160a01b0382163b1580610d735750604051630a85bd0160e11b80825233600483015260006024830181905260448301849052608060648401526084830152906001600160a01b0384169063150b7a029060a4016020604051808303816000875af1158015610d43573d6000803e3d6000fd5b505050506040513d601f19601f82011682018060405250810190610d6791906113e0565b6001600160e01b031916145b610d8f5760405162461bcd60e51b81526004016105aa906113fd565b5050565b6006546001600160a01b031633146109f35760405162461bcd60e51b815260206004820181905260248201527f4f776e61626c653a2063616c6c6572206973206e6f7420746865206f776e657260448201526064016105aa565b600680546001600160a01b038381166001600160a01b0319831681179093556040519116919082907f8be0079c531659141344cd1fd0a4f28419497f9722a3daafe3b4186f6b6457e090600090a35050565b6001600160a01b038216610e895760405162461bcd60e51b81526020600482015260116024820152701253959053125117d49150d25412515395607a1b60448201526064016105aa565b6000818152600260205260409020546001600160a01b031615610edf5760405162461bcd60e51b815260206004820152600e60248201526d1053149150511657d3525395115160921b60448201526064016105aa565b6001600160a01b038216600081815260036020908152604080832080546001019055848352600290915280822080546001600160a01b0319168417905551839291907fddf252ad1be2c89b69c2b068fc378daa952ba7f163c4a11628f55a4df523b3ef908290a45050565b6001600160a01b0381168114610cc057600080fd5b634e487b7160e01b600052604160045260246000fd5b60008060408385031215610f8857600080fd5b8235610f9381610f4a565b9150602083013567ffffffffffffffff80821115610fb057600080fd5b818501915085601f830112610fc457600080fd5b813581811115610fd657610fd6610f5f565b604051601f8201601f19908116603f01168101908382118183101715610ffe57610ffe610f5f565b8160405282815288602084870101111561101757600080fd5b8260208601602083013760006020848301015280955050505050509250929050565b6001600160e01b031981168114610cc057600080fd5b60006020828403121561106157600080fd5b813561044181611039565b60005b8381101561108757818101518382015260200161106f565b50506000910152565b60208152600082518060208401526110af81604085016020870161106c565b601f01601f19169190910160400192915050565b6000602082840312156110d557600080fd5b5035919050565b600080604083850312156110ef57600080fd5b82356110fa81610f4a565b946020939093013593505050565b60008060006060848603121561111d57600080fd5b833561112881610f4a565b9250602084013561113881610f4a565b929592945050506040919091013590565b60006020828403121561115b57600080fd5b813561044181610f4a565b6000806040838503121561117957600080fd5b823561118481610f4a565b91506020830135801515811461119957600080fd5b809150509250929050565b6000806000806000608086880312156111bc57600080fd5b85356111c781610f4a565b945060208601356111d781610f4a565b935060408601359250606086013567ffffffffffffffff808211156111fb57600080fd5b818801915088601f83011261120f57600080fd5b81358181111561121e57600080fd5b89602082850101111561123057600080fd5b9699959850939650602001949392505050565b6000806040838503121561125657600080fd5b823561126181610f4a565b9150602083013561119981610f4a565b60006001820161129157634e487b7160e01b600052601160045260246000fd5b5060010190565b600181811c908216806112ac57607f821691505b6020821081036112cc57634e487b7160e01b600052602260045260246000fd5b50919050565b601f82111561085257600081815260208120601f850160051c810160208610156112f95750805b601f850160051c820191505b8181101561131857828155600101611305565b505050505050565b815167ffffffffffffffff81111561133a5761133a610f5f565b61134e816113488454611298565b846112d2565b602080601f831160018114611383576000841561136b5750858301515b600019600386901b1c1916600185901b178555611318565b600085815260208120601f198616915b828110156113b257888601518255948401946001909101908401611393565b50858210156113d05787850151600019600388901b60f8161c191681555b5050505050600190811b01905550565b6000602082840312156113f257600080fd5b815161044181611039565b60208082526010908201526f155394d0519157d49150d2541251539560821b604082015260600190565b6001600160a01b038681168252851660208201526040810184905260806060820181905281018290526000828460a0840137600060a0848401015260a0601f19601f85011683010190509695505050505050565b66697066733a2f2f60c81b81526000825161149d81600785016020870161106c565b6d17b6b2ba30b230ba30973539b7b760911b600793909101928301525060150191905056fea2646970667358221220c47bddba79c63860404ff0ccd56fe32ebbaa878560591c72d2c30b4ee3b8f23364736f6c63430008100033",
    "linkReferences": {}
  },
  "methodIdentifiers": {
    "MINT_PRICE()": "c002d23d",
    "approve(address,uint256)": "095ea7b3",
    "balanceOf(address)": "70a08231",
    "currentTokenId()": "009a9b7b",
    "getApproved(uint256)": "081812fc",
    "isApprovedForAll(address,address)": "e985e9c5",
    "mintTo(address,string)": "0075a317",
    "name()": "06fdde03",
    "owner()": "8da5cb5b",
    "ownerOf(uint256)": "6352211e",
    "renounceOwnership()": "715018a6",
    "safeTransferFrom(address,address,uint256)": "42842e0e",
    "safeTransferFrom(address,address,uint256,bytes)": "b88d4fde",
    "setApprovalForAll(address,bool)": "a22cb465",
    "supportsInterface(bytes4)": "01ffc9a7",
    "symbol()": "95d89b41",
    "tokenURI(uint256)": "c87b56dd",
    "transferFrom(address,address,uint256)": "23b872dd",
    "transferOwnership(address)": "f2fde38b",
    "withdrawPayments(address)": "31b3eb94"
  },
  "id": 11
}