{
  "abi": [
    {
      "inputs": [],
      "stateMutability": "nonpayable",
      "type": "constructor"
    },
    {
      "inputs": [],
      "name": "NonExistentTokenURI",
      "type": "error"
    },
    {
      "anonymous": false,
      "inputs": [
        {
          "indexed": true,
          "internalType": "address",
          "name": "owner",
          "type": "address"
        },
        {
          "indexed": true,
          "internalType": "address",
          "name": "spender",
          "type": "address"
        },
        {
          "indexed": true,
          "internalType": "uint256",
          "name": "id",
          "type": "uint256"
        }
      ],
      "name": "Approval",
      "type": "event"
    },
    {
      "anonymous": false,
      "inputs": [
        {
          "indexed": true,
          "internalType": "address",
          "name": "owner",
          "type": "address"
        },
        {
          "indexed": true,
          "internalType": "address",
          "name": "operator",
          "type": "address"
        },
        {
          "indexed": false,
          "internalType": "bool",
          "name": "approved",
          "type": "bool"
        }
      ],
      "name": "ApprovalForAll",
      "type": "event"
    },
    {
      "anonymous": false,
      "inputs": [
        {
          "indexed": true,
          "internalType": "address",
          "name": "from",
          "type": "address"
        },
        {
          "indexed": true,
          "internalType": "address",
          "name": "to",
          "type": "address"
        },
        {
          "indexed": true,
          "internalType": "uint256",
          "name": "id",
          "type": "uint256"
        }
      ],
      "name": "Transfer",
      "type": "event"
    },
    {
      "inputs": [
        {
          "internalType": "address",
          "name": "spender",
          "type": "address"
        },
        {
          "internalType": "uint256",
          "name": "id",
          "type": "uint256"
        }
      ],
      "name": "approve",
      "outputs": [],
      "stateMutability": "nonpayable",
      "type": "function"
    },
    {
      "inputs": [
        {
          "internalType": "address",
          "name": "owner",
          "type": "address"
        }
      ],
      "name": "balanceOf",
      "outputs": [
        {
          "internalType": "uint256",
          "name": "",
          "type": "uint256"
        }
      ],
      "stateMutability": "view",
      "type": "function"
    },
    {
      "inputs": [],
      "name": "currentTokenId",
      "outputs": [
        {
          "internalType": "uint256",
          "name": "",
          "type": "uint256"
        }
      ],
      "stateMutability": "view",
      "type": "function"
    },
    {
      "inputs": [
        {
          "internalType": "uint256",
          "name": "",
          "type": "uint256"
        }
      ],
      "name": "getApproved",
      "outputs": [
        {
          "internalType": "address",
          "name": "",
          "type": "address"
        }
      ],
      "stateMutability": "view",
      "type": "function"
    },
    {
      "inputs": [
        {
          "internalType": "address",
          "name": "",
          "type": "address"
        },
        {
          "internalType": "address",
          "name": "",
          "type": "address"
        }
      ],
      "name": "isApprovedForAll",
      "outputs": [
        {
          "internalType": "bool",
          "name": "",
          "type": "bool"
        }
      ],
      "stateMutability": "view",
      "type": "function"
    },
    {
      "inputs": [
        {
          "internalType": "address",
          "name": "recipient",
          "type": "address"
        },
        {
          "internalType": "string",
          "name": "uri",
          "type": "string"
        }
      ],
      "name": "mintTo",
      "outputs": [
        {
          "internalType": "uint256",
          "name": "",
          "type": "uint256"
        }
      ],
      "stateMutability": "nonpayable",
      "type": "function"
    },
    {
      "inputs": [],
      "name": "name",
      "outputs": [
        {
          "internalType": "string",
          "name": "",
          "type": "string"
        }
      ],
      "stateMutability": "view",
      "type": "function"
    },
    {
      "inputs": [
        {
          "internalType": "uint256",
          "name": "id",
          "type": "uint256"
        }
      ],
      "name": "ownerOf",
      "outputs": [
        {
          "internalType": "address",
          "name": "owner",
          "type": "address"
        }
      ],
      "stateMutability": "view",
      "type": "function"
    },
    {
      "inputs": [
        {
          "internalType": "address",
          "name": "from",
          "type": "address"
        },
        {
          "internalType": "address",
          "name": "to",
          "type": "address"
        },
        {
          "internalType": "uint256",
          "name": "id",
          "type": "uint256"
        }
      ],
      "name": "safeTransferFrom",
      "outputs": [],
      "stateMutability": "nonpayable",
      "type": "function"
    },
    {
      "inputs": [
        {
          "internalType": "address",
          "name": "from",
          "type": "address"
        },
        {
          "internalType": "address",
          "name": "to",
          "type": "address"
        },
        {
          "internalType": "uint256",
          "name": "id",
          "type": "uint256"
        },
        {
          "internalType": "bytes",
          "name": "data",
          "type": "bytes"
        }
      ],
      "name": "safeTransferFrom",
      "outputs": [],
      "stateMutability": "nonpayable",
      "type": "function"
    },
    {
      "inputs": [
        {
          "internalType": "address",
          "name": "operator",
          "type": "address"
        },
        {
          "internalType": "bool",
          "name": "approved",
          "type": "bool"
        }
      ],
      "name": "setApprovalForAll",
      "outputs": [],
      "stateMutability": "nonpayable",
      "type": "function"
    },
    {
      "inputs": [
        {
          "internalType": "bytes4",
          "name": "interfaceId",
          "type": "bytes4"
        }
      ],
      "name": "supportsInterface",
      "outputs": [
        {
          "internalType": "bool",
          "name": "",
          "type": "bool"
        }
      ],
      "stateMutability": "view",
      "type": "function"
    },
    {
      "inputs": [],
      "name": "symbol",
      "outputs": [
        {
          "internalType": "string",
          "name": "",
          "type": "string"
        }
      ],
      "stateMutability": "view",
      "type": "function"
    },
    {
      "inputs": [
        {
          "internalType": "uint256",
          "name": "tokenId",
          "type": "uint256"
        }
      ],
      "name": "tokenURI",
      "outputs": [
        {
          "internalType": "string",
          "name": "",
          "type": "string"
        }
      ],
      "stateMutability": "view",
      "type": "function"
    },
    {
      "inputs": [
        {
          "internalType": "address",
          "name": "from",
          "type": "address"
        },
        {
          "internalType": "address",
          "name": "to",
          "type": "address"
        },
        {
          "internalType": "uint256",
          "name": "id",
          "type": "uint256"
        }
      ],
      "name": "transferFrom",
      "outputs": [],
      "stateMutability": "nonpayable",
      "type": "function"
    }
  ],
  "bytecode": {
    "object": "0x60806040523480156200001157600080fd5b506040518060400160405280600a8152602001692a34b6b2b9ba37b732a360b11b815250604051806040016040528060068152602001652a26a9aa272360d11b815250816000908162000065919062000122565b50600162000074828262000122565b505050620001ee565b634e487b7160e01b600052604160045260246000fd5b600181811c90821680620000a857607f821691505b602082108103620000c957634e487b7160e01b600052602260045260246000fd5b50919050565b601f8211156200011d57600081815260208120601f850160051c81016020861015620000f85750805b601f850160051c820191505b81811015620001195782815560010162000104565b5050505b505050565b81516001600160401b038111156200013e576200013e6200007d565b62000156816200014f845462000093565b84620000cf565b602080601f8311600181146200018e5760008415620001755750858301515b600019600386901b1c1916600185901b17855562000119565b600085815260208120601f198616915b82811015620001bf578886015182559484019460019091019084016200019e565b5085821015620001de5787850151600019600388901b60f8161c191681555b5050505050600190811b01905550565b6111a880620001fe6000396000f3fe608060405234801561001057600080fd5b50600436106100f35760003560e01c806342842e0e11610097578063a22cb46511610066578063a22cb46514610209578063b88d4fde1461021c578063c87b56dd1461022f578063e985e9c51461024257600080fd5b806342842e0e146101c85780636352211e146101db57806370a08231146101ee57806395d89b411461020157600080fd5b806306fdde03116100d357806306fdde031461014a578063081812fc1461015f578063095ea7b3146101a057806323b872dd146101b557600080fd5b806275a317146100f85780629a9b7b1461011e57806301ffc9a714610127575b600080fd5b61010b610106366004610c2e565b610270565b6040519081526020015b60405180910390f35b61010b60065481565b61013a610135366004610d09565b6102b4565b6040519015158152602001610115565b610152610306565b6040516101159190610d4a565b61018861016d366004610d7d565b6004602052600090815260409020546001600160a01b031681565b6040516001600160a01b039091168152602001610115565b6101b36101ae366004610d96565b610394565b005b6101b36101c3366004610dc0565b61047b565b6101b36101d6366004610dc0565b610642565b6101886101e9366004610d7d565b610717565b61010b6101fc366004610dfc565b61076e565b6101526107d1565b6101b3610217366004610e17565b6107de565b6101b361022a366004610e53565b61084a565b61015261023d366004610d7d565b61090f565b61013a610250366004610eee565b600560209081526000928352604080842090915290825290205460ff1681565b60008060066000815461028290610f21565b918290555060008181526007602052604090209091506102a28482610fd0565b506102ad8482610a26565b9392505050565b60006301ffc9a760e01b6001600160e01b0319831614806102e557506380ac58cd60e01b6001600160e01b03198316145b806103005750635b5e139f60e01b6001600160e01b03198316145b92915050565b6000805461031390610f48565b80601f016020809104026020016040519081016040528092919081815260200182805461033f90610f48565b801561038c5780601f106103615761010080835404028352916020019161038c565b820191906000526020600020905b81548152906001019060200180831161036f57829003601f168201915b505050505081565b6000818152600260205260409020546001600160a01b0316338114806103dd57506001600160a01b038116600090815260056020908152604080832033845290915290205460ff165b61041f5760405162461bcd60e51b815260206004820152600e60248201526d1393d517d055551213d49256915160921b60448201526064015b60405180910390fd5b60008281526004602052604080822080546001600160a01b0319166001600160a01b0387811691821790925591518593918516917f8c5be1e5ebec7d5bd14f71427d1e84f3dd0314c0f7b2291e5b200ac8c7c3b92591a4505050565b6000818152600260205260409020546001600160a01b038481169116146104d15760405162461bcd60e51b815260206004820152600a60248201526957524f4e475f46524f4d60b01b6044820152606401610416565b6001600160a01b03821661051b5760405162461bcd60e51b81526020600482015260116024820152701253959053125117d49150d25412515395607a1b6044820152606401610416565b336001600160a01b038416148061055557506001600160a01b038316600090815260056020908152604080832033845290915290205460ff165b8061057657506000818152600460205260409020546001600160a01b031633145b6105b35760405162461bcd60e51b815260206004820152600e60248201526d1393d517d055551213d49256915160921b6044820152606401610416565b6001600160a01b0380841660008181526003602090815260408083208054600019019055938616808352848320805460010190558583526002825284832080546001600160a01b03199081168317909155600490925284832080549092169091559251849392917fddf252ad1be2c89b69c2b068fc378daa952ba7f163c4a11628f55a4df523b3ef91a4505050565b61064d83838361047b565b6001600160a01b0382163b15806106f65750604051630a85bd0160e11b8082523360048301526001600160a01b03858116602484015260448301849052608060648401526000608484015290919084169063150b7a029060a4016020604051808303816000875af11580156106c6573d6000803e3d6000fd5b505050506040513d601f19601f820116820180604052508101906106ea9190611090565b6001600160e01b031916145b6107125760405162461bcd60e51b8152600401610416906110ad565b505050565b6000818152600260205260409020546001600160a01b0316806107695760405162461bcd60e51b815260206004820152600a6024820152691393d517d3525395115160b21b6044820152606401610416565b919050565b60006001600160a01b0382166107b55760405162461bcd60e51b815260206004820152600c60248201526b5a45524f5f4144445245535360a01b6044820152606401610416565b506001600160a01b031660009081526003602052604090205490565b6001805461031390610f48565b3360008181526005602090815260408083206001600160a01b03871680855290835292819020805460ff191686151590811790915590519081529192917f17307eab39ab6107e8899845ad3d59bd9653f200f220920489ca2b5937696c31910160405180910390a35050565b61085585858561047b565b6001600160a01b0384163b15806108ec5750604051630a85bd0160e11b808252906001600160a01b0386169063150b7a029061089d9033908a908990899089906004016110d7565b6020604051808303816000875af11580156108bc573d6000803e3d6000fd5b505050506040513d601f19601f820116820180604052508101906108e09190611090565b6001600160e01b031916145b6109085760405162461bcd60e51b8152600401610416906110ad565b5050505050565b6060600061091c83610717565b6001600160a01b0316036109435760405163d872946b60e01b815260040160405180910390fd5b6000828152600760205260408120805461095c90610f48565b80601f016020809104026020016040519081016040528092919081815260200182805461098890610f48565b80156109d55780601f106109aa576101008083540402835291602001916109d5565b820191906000526020600020905b8154815290600101906020018083116109b857829003601f168201915b5050505050905080516000036109fe5760405163d872946b60e01b815260040160405180910390fd5b80604051602001610a0f919061112b565b604051602081830303815290604052915050919050565b610a308282610af6565b6001600160a01b0382163b1580610ad65750604051630a85bd0160e11b80825233600483015260006024830181905260448301849052608060648401526084830152906001600160a01b0384169063150b7a029060a4016020604051808303816000875af1158015610aa6573d6000803e3d6000fd5b505050506040513d601f19601f82011682018060405250810190610aca9190611090565b6001600160e01b031916145b610af25760405162461bcd60e51b8152600401610416906110ad565b5050565b6001600160a01b038216610b405760405162461bcd60e51b81526020600482015260116024820152701253959053125117d49150d25412515395607a1b6044820152606401610416565b6000818152600260205260409020546001600160a01b031615610b965760405162461bcd60e51b815260206004820152600e60248201526d1053149150511657d3525395115160921b6044820152606401610416565b6001600160a01b038216600081815260036020908152604080832080546001019055848352600290915280822080546001600160a01b0319168417905551839291907fddf252ad1be2c89b69c2b068fc378daa952ba7f163c4a11628f55a4df523b3ef908290a45050565b80356001600160a01b038116811461076957600080fd5b634e487b7160e01b600052604160045260246000fd5b60008060408385031215610c4157600080fd5b610c4a83610c01565b9150602083013567ffffffffffffffff80821115610c6757600080fd5b818501915085601f830112610c7b57600080fd5b813581811115610c8d57610c8d610c18565b604051601f8201601f19908116603f01168101908382118183101715610cb557610cb5610c18565b81604052828152886020848701011115610cce57600080fd5b8260208601602083013760006020848301015280955050505050509250929050565b6001600160e01b031981168114610d0657600080fd5b50565b600060208284031215610d1b57600080fd5b81356102ad81610cf0565b60005b83811015610d41578181015183820152602001610d29565b50506000910152565b6020815260008251806020840152610d69816040850160208701610d26565b601f01601f19169190910160400192915050565b600060208284031215610d8f57600080fd5b5035919050565b60008060408385031215610da957600080fd5b610db283610c01565b946020939093013593505050565b600080600060608486031215610dd557600080fd5b610dde84610c01565b9250610dec60208501610c01565b9150604084013590509250925092565b600060208284031215610e0e57600080fd5b6102ad82610c01565b60008060408385031215610e2a57600080fd5b610e3383610c01565b915060208301358015158114610e4857600080fd5b809150509250929050565b600080600080600060808688031215610e6b57600080fd5b610e7486610c01565b9450610e8260208701610c01565b935060408601359250606086013567ffffffffffffffff80821115610ea657600080fd5b818801915088601f830112610eba57600080fd5b813581811115610ec957600080fd5b896020828501011115610edb57600080fd5b9699959850939650602001949392505050565b60008060408385031215610f0157600080fd5b610f0a83610c01565b9150610f1860208401610c01565b90509250929050565b600060018201610f4157634e487b7160e01b600052601160045260246000fd5b5060010190565b600181811c90821680610f5c57607f821691505b602082108103610f7c57634e487b7160e01b600052602260045260246000fd5b50919050565b601f82111561071257600081815260208120601f850160051c81016020861015610fa95750805b601f850160051c820191505b81811015610fc857828155600101610fb5565b505050505050565b815167ffffffffffffffff811115610fea57610fea610c18565b610ffe81610ff88454610f48565b84610f82565b602080601f831160018114611033576000841561101b5750858301515b600019600386901b1c1916600185901b178555610fc8565b600085815260208120601f198616915b8281101561106257888601518255948401946001909101908401611043565b50858210156110805787850151600019600388901b60f8161c191681555b5050505050600190811b01905550565b6000602082840312156110a257600080fd5b81516102ad81610cf0565b60208082526010908201526f155394d0519157d49150d2541251539560821b604082015260600190565b6001600160a01b038681168252851660208201526040810184905260806060820181905281018290526000828460a0840137600060a0848401015260a0601f19601f85011683010190509695505050505050565b66697066733a2f2f60c81b81526000825161114d816007850160208701610d26565b6d17b6b2ba30b230ba30973539b7b760911b600793909101928301525060150191905056fea26469706673582212205f63d3bb1e2f7bf32ae1613132d427c75cd23aed8e18a8f88b33b9192a6ccb6764736f6c63430008100033",
    "linkReferences": {}
  },
  "methodIdentifiers": {
    "approve(address,uint256)": "095ea7b3",
    "balanceOf(address)": "70a08231",
    "currentTokenId()": "009a9b7b",
    "getApproved(uint256)": "081812fc",
    "isApprovedForAll(address,address)": "e985e9c5",
    "mintTo(address,string)": "0075a317",
    "name()": "06fdde03",
    "ownerOf(uint256)": "6352211e",
    "safeTransferFrom(address,address,uint256)": "42842e0e",
    "safeTransferFrom(address,address,uint256,bytes)": "b88d4fde",
    "setApprovalForAll(address,bool)": "a22cb465",
    "supportsInterface(bytes4)": "01ffc9a7",
    "symbol()": "95d89b41",
    "tokenURI(uint256)": "c87b56dd",
    "transferFrom(address,address,uint256)": "23b872dd"
  },
  "id": 12
}